{
  "contractName": "Warehouse",
  "abi": [
    {
      "inputs": [
        {
          "internalType": "string",
          "name": "",
          "type": "string"
        }
      ],
      "name": "tasks",
      "outputs": [
        {
          "internalType": "string",
          "name": "id",
          "type": "string"
        },
        {
          "internalType": "string",
          "name": "typeOfTask",
          "type": "string"
        },
        {
          "internalType": "string",
          "name": "containerId",
          "type": "string"
        },
        {
          "internalType": "string",
          "name": "item",
          "type": "string"
        },
        {
          "internalType": "string",
          "name": "quantity",
          "type": "string"
        },
        {
          "internalType": "enum Warehouse.Status",
          "name": "status",
          "type": "uint8"
        },
        {
          "internalType": "address",
          "name": "user",
          "type": "address"
        },
        {
          "internalType": "bool",
          "name": "exist",
          "type": "bool"
        }
      ],
      "stateMutability": "view",
      "type": "function"
    },
    {
      "inputs": [
        {
          "internalType": "string",
          "name": "taskId",
          "type": "string"
        },
        {
          "components": [
            {
              "internalType": "string",
              "name": "id",
              "type": "string"
            },
            {
              "internalType": "string",
              "name": "typeOfTask",
              "type": "string"
            },
            {
              "internalType": "string",
              "name": "containerId",
              "type": "string"
            },
            {
              "internalType": "string",
              "name": "item",
              "type": "string"
            },
            {
              "internalType": "string",
              "name": "quantity",
              "type": "string"
            },
            {
              "internalType": "enum Warehouse.Status",
              "name": "status",
              "type": "uint8"
            },
            {
              "internalType": "address",
              "name": "user",
              "type": "address"
            },
            {
              "internalType": "bool",
              "name": "exist",
              "type": "bool"
            }
          ],
          "internalType": "struct Warehouse.TaskDetail",
          "name": "taskDetail",
          "type": "tuple"
        }
      ],
      "name": "createTask",
      "outputs": [],
      "stateMutability": "nonpayable",
      "type": "function"
    },
    {
      "inputs": [
        {
          "internalType": "string",
          "name": "taskId",
          "type": "string"
        }
      ],
      "name": "startTask",
      "outputs": [],
      "stateMutability": "nonpayable",
      "type": "function"
    },
    {
      "inputs": [
        {
          "internalType": "string",
          "name": "item",
          "type": "string"
        },
        {
          "internalType": "uint256",
          "name": "quantity",
          "type": "uint256"
        }
      ],
      "name": "addInventory",
      "outputs": [],
      "stateMutability": "nonpayable",
      "type": "function"
    }
  ],
  "bytecode": "0x608060405234801561001057600080fd5b506112df806100206000396000f3fe608060405234801561001057600080fd5b506004361061004c5760003560e01c806358709cf214610051578063ae78a1e114610088578063c9653354146100a4578063fcbf37e3146100c0575b600080fd5b61006b600480360381019061006691906108ac565b6100dc565b60405161007f989796959493929190610a47565b60405180910390f35b6100a2600480360381019061009d9190610b48565b61041c565b005b6100be60048036038101906100b99190610d72565b61055e565b005b6100da60048036038101906100d59190610e24565b610716565b005b60008180516020810182018051848252602083016020850120818352809550505050505060009150905080600001805461011590610eb3565b80601f016020809104026020016040519081016040528092919081815260200182805461014190610eb3565b801561018e5780601f106101635761010080835404028352916020019161018e565b820191906000526020600020905b81548152906001019060200180831161017157829003601f168201915b5050505050908060010180546101a390610eb3565b80601f01602080910402602001604051908101604052809291908181526020018280546101cf90610eb3565b801561021c5780601f106101f15761010080835404028352916020019161021c565b820191906000526020600020905b8154815290600101906020018083116101ff57829003601f168201915b50505050509080600201805461023190610eb3565b80601f016020809104026020016040519081016040528092919081815260200182805461025d90610eb3565b80156102aa5780601f1061027f576101008083540402835291602001916102aa565b820191906000526020600020905b81548152906001019060200180831161028d57829003601f168201915b5050505050908060030180546102bf90610eb3565b80601f01602080910402602001604051908101604052809291908181526020018280546102eb90610eb3565b80156103385780601f1061030d57610100808354040283529160200191610338565b820191906000526020600020905b81548152906001019060200180831161031b57829003601f168201915b50505050509080600401805461034d90610eb3565b80601f016020809104026020016040519081016040528092919081815260200182805461037990610eb3565b80156103c65780601f1061039b576101008083540402835291602001916103c6565b820191906000526020600020905b8154815290600101906020018083116103a957829003601f168201915b5050505050908060050160009054906101000a900460ff16908060050160019054906101000a900473ffffffffffffffffffffffffffffffffffffffff16908060050160159054906101000a900460ff16905088565b6001151560008383604051610432929190610f14565b908152602001604051809103902060050160159054906101000a900460ff1615151461046157610460610f2d565b5b6001600381111561047557610474610974565b5b60008383604051610487929190610f14565b908152602001604051809103902060050160009054906101000a900460ff1660038111156104b8576104b7610974565b5b036104c6576104c5610f2d565b5b60008083836040516104d9929190610f14565b9081526020016040518091039020905060018160050160006101000a81548160ff0219169083600381111561051157610510610974565b5b0217905550338160050160016101000a81548173ffffffffffffffffffffffffffffffffffffffff021916908373ffffffffffffffffffffffffffffffffffffffff160217905550505050565b6000808484604051610571929190610f14565b908152602001604051809103902060050160156101000a81548160ff02191690831515021790556105d7576040517f08c379a00000000000000000000000000000000000000000000000000000000081526004016105ce90610fa8565b60405180910390fd5b60018160e001901515908115158152505080600084846040516105fb929190610f14565b9081526020016040518091039020600082015181600001908161061e9190611174565b5060208201518160010190816106349190611174565b50604082015181600201908161064a9190611174565b5060608201518160030190816106609190611174565b5060808201518160040190816106769190611174565b5060a08201518160050160006101000a81548160ff021916908360038111156106a2576106a1610974565b5b021790555060c08201518160050160016101000a81548173ffffffffffffffffffffffffffffffffffffffff021916908373ffffffffffffffffffffffffffffffffffffffff16021790555060e08201518160050160156101000a81548160ff021916908315150217905550905050505050565b8060018484604051610729929190610f14565b908152602001604051809103902060008282546107469190611275565b92505081905550505050565b6000604051905090565b600080fd5b600080fd5b600080fd5b600080fd5b6000601f19601f8301169050919050565b7f4e487b7100000000000000000000000000000000000000000000000000000000600052604160045260246000fd5b6107b982610770565b810181811067ffffffffffffffff821117156107d8576107d7610781565b5b80604052505050565b60006107eb610752565b90506107f782826107b0565b919050565b600067ffffffffffffffff82111561081757610816610781565b5b61082082610770565b9050602081019050919050565b82818337600083830152505050565b600061084f61084a846107fc565b6107e1565b90508281526020810184848401111561086b5761086a61076b565b5b61087684828561082d565b509392505050565b600082601f83011261089357610892610766565b5b81356108a384826020860161083c565b91505092915050565b6000602082840312156108c2576108c161075c565b5b600082013567ffffffffffffffff8111156108e0576108df610761565b5b6108ec8482850161087e565b91505092915050565b600081519050919050565b600082825260208201905092915050565b60005b8381101561092f578082015181840152602081019050610914565b60008484015250505050565b6000610946826108f5565b6109508185610900565b9350610960818560208601610911565b61096981610770565b840191505092915050565b7f4e487b7100000000000000000000000000000000000000000000000000000000600052602160045260246000fd5b600481106109b4576109b3610974565b5b50565b60008190506109c5826109a3565b919050565b60006109d5826109b7565b9050919050565b6109e5816109ca565b82525050565b600073ffffffffffffffffffffffffffffffffffffffff82169050919050565b6000610a16826109eb565b9050919050565b610a2681610a0b565b82525050565b60008115159050919050565b610a4181610a2c565b82525050565b6000610100820190508181036000830152610a62818b61093b565b90508181036020830152610a76818a61093b565b90508181036040830152610a8a818961093b565b90508181036060830152610a9e818861093b565b90508181036080830152610ab2818761093b565b9050610ac160a08301866109dc565b610ace60c0830185610a1d565b610adb60e0830184610a38565b9998505050505050505050565b600080fd5b600080fd5b60008083601f840112610b0857610b07610766565b5b8235905067ffffffffffffffff811115610b2557610b24610ae8565b5b602083019150836001820283011115610b4157610b40610aed565b5b9250929050565b60008060208385031215610b5f57610b5e61075c565b5b600083013567ffffffffffffffff811115610b7d57610b7c610761565b5b610b8985828601610af2565b92509250509250929050565b600080fd5b600080fd5b60048110610bac57600080fd5b50565b600081359050610bbe81610b9f565b92915050565b610bcd81610a0b565b8114610bd857600080fd5b50565b600081359050610bea81610bc4565b92915050565b610bf981610a2c565b8114610c0457600080fd5b50565b600081359050610c1681610bf0565b92915050565b60006101008284031215610c3357610c32610b95565b5b610c3e6101006107e1565b9050600082013567ffffffffffffffff811115610c5e57610c5d610b9a565b5b610c6a8482850161087e565b600083015250602082013567ffffffffffffffff811115610c8e57610c8d610b9a565b5b610c9a8482850161087e565b602083015250604082013567ffffffffffffffff811115610cbe57610cbd610b9a565b5b610cca8482850161087e565b604083015250606082013567ffffffffffffffff811115610cee57610ced610b9a565b5b610cfa8482850161087e565b606083015250608082013567ffffffffffffffff811115610d1e57610d1d610b9a565b5b610d2a8482850161087e565b60808301525060a0610d3e84828501610baf565b60a08301525060c0610d5284828501610bdb565b60c08301525060e0610d6684828501610c07565b60e08301525092915050565b600080600060408486031215610d8b57610d8a61075c565b5b600084013567ffffffffffffffff811115610da957610da8610761565b5b610db586828701610af2565b9350935050602084013567ffffffffffffffff811115610dd857610dd7610761565b5b610de486828701610c1c565b9150509250925092565b6000819050919050565b610e0181610dee565b8114610e0c57600080fd5b50565b600081359050610e1e81610df8565b92915050565b600080600060408486031215610e3d57610e3c61075c565b5b600084013567ffffffffffffffff811115610e5b57610e5a610761565b5b610e6786828701610af2565b93509350506020610e7a86828701610e0f565b9150509250925092565b7f4e487b7100000000000000000000000000000000000000000000000000000000600052602260045260246000fd5b60006002820490506001821680610ecb57607f821691505b602082108103610ede57610edd610e84565b5b50919050565b600081905092915050565b6000610efb8385610ee4565b9350610f0883858461082d565b82840190509392505050565b6000610f21828486610eef565b91508190509392505050565b7f4e487b7100000000000000000000000000000000000000000000000000000000600052600160045260246000fd5b7f7461736b496420697320616c726561647920696e2073797374656d0000000000600082015250565b6000610f92601b83610900565b9150610f9d82610f5c565b602082019050919050565b60006020820190508181036000830152610fc181610f85565b9050919050565b60008190508160005260206000209050919050565b60006020601f8301049050919050565b600082821b905092915050565b60006008830261102a7fffffffffffffffffffffffffffffffffffffffffffffffffffffffffffffffff82610fed565b6110348683610fed565b95508019841693508086168417925050509392505050565b6000819050919050565b600061107161106c61106784610dee565b61104c565b610dee565b9050919050565b6000819050919050565b61108b83611056565b61109f61109782611078565b848454610ffa565b825550505050565b600090565b6110b46110a7565b6110bf818484611082565b505050565b5b818110156110e3576110d86000826110ac565b6001810190506110c5565b5050565b601f821115611128576110f981610fc8565b61110284610fdd565b81016020851015611111578190505b61112561111d85610fdd565b8301826110c4565b50505b505050565b600082821c905092915050565b600061114b6000198460080261112d565b1980831691505092915050565b6000611164838361113a565b9150826002028217905092915050565b61117d826108f5565b67ffffffffffffffff81111561119657611195610781565b5b6111a08254610eb3565b6111ab8282856110e7565b600060209050601f8311600181146111de57600084156111cc578287015190505b6111d68582611158565b86555061123e565b601f1984166111ec86610fc8565b60005b82811015611214578489015182556001820191506020850194506020810190506111ef565b86831015611231578489015161122d601f89168261113a565b8355505b6001600288020188555050505b505050505050565b7f4e487b7100000000000000000000000000000000000000000000000000000000600052601160045260246000fd5b600061128082610dee565b915061128b83610dee565b92508282019050808211156112a3576112a2611246565b5b9291505056fea264697066735822122074301e9962af1b2af2baf7af82c5a8137875dda0f5f2089e28d2523e6f311d4964736f6c63430008120033",
  "immutableReferences": {},
  "source": "// SPDX-License-Identifier: MIT\npragma solidity ^0.8.15; \n\ncontract Warehouse {\n  struct TaskDetail {\n    string id;\n    string typeOfTask; // pick, pack .. etc\n    string containerId;\n    string item;\n    string quantity;\n    Status status;\n    address user;\n    bool exist; // to determine if map contains this taskDetail\n  }\n\n  enum Status {CREATED, IN_PROGRESS, COMPLETED, CANCELED}\n\n  // taskId to TaskDetail\n  mapping (string => TaskDetail) public tasks;\n\n  // item to availability mapping\n  mapping (string => uint) inventory;\n\n  function createTask(string calldata taskId, TaskDetail memory taskDetail) public {\n    require(tasks[taskId].exist = false ,\"taskId is already in system\");\n    taskDetail.exist = true;\n    tasks[taskId] = taskDetail;\n  }\n\n  function startTask(string calldata taskId) public {\n    assert(tasks[taskId].exist == true);\n    assert(tasks[taskId].status != Status.IN_PROGRESS);\n\n    TaskDetail storage currentTask = tasks[taskId];\n    currentTask.status = Status.IN_PROGRESS;\n    currentTask.user = msg.sender;\n  }\n\n  // function verifyItem(string currentTask, string taskId, string itemId) public {\n  //   revert(); // the item must be part of the tas\n  //   revert(); // must have enougth of item in inventory\n  // }\n\n  function addInventory(string calldata item, uint quantity) public {\n    inventory[item] += quantity;\n  }\n}\n",
  "sourcePath": "/home/israel/Documents/solidity/warehouseManagement/contracts/Warehouse.sol",
  "compiler": {
    "name": "solc",
    "version": "0.8.18+commit.87f61d96.Emscripten.clang"
  },
  "schemaVersion": "3.4.12",
  "updatedAt": "2023-03-06T02:06:16.464Z",
  "devdoc": {
    "kind": "dev",
    "methods": {},
    "version": 1
  },
  "userdoc": {
    "kind": "user",
    "methods": {},
    "version": 1
  }
}